:100000000C94BF000C94DC000C94DC000C94DC001D
:100010000C94DC000C94DC000C94DC000C94DC00F0
:100020000C94DC000C94DC000C94DC000C94DC00E0
:100030000C94DC000C94DC000C94DC000C9427077E
:100040000C9480070C94DC000C94DC000C94DC0015
:100050000C94DC000C94DC000C94DC000C94DC00B0
:100060000C94ED040C94DC000C94DC000C94DC008B
:100070000C94DC000C94DC000C94DC006E616E00CF
:10008000696E660000407A10F35A00A0724E18099B
:100090000010A5D4E80000E87648170000E40B54EF
:1000A000020000CA9A3B000000E1F50500008096BE
:1000B0009800000040420F000000A08601000000F0
:1000C000102700000000E8030000000064000000AA
:1000D00000000A00000000000100000000002C7673
:1000E000D888DC674F0823DFC1DFAE59E1B1B7968E
:1000F000E5E3E453C63AE651997696E8E6C28426EB
:10010000EB898C9B62ED407C6FFCEFBC9C9F40F2C6
:10011000BAA56FA5F490055A2AF75C936B6CF96742
:100120006DC11BFCE0E40D47FEF520E6B500D0ED07
:10013000902E0300943577050080841E080000206F
:100140004E0A000000C80C333333330F986E12830D
:100150001141EF8D2114893BE65516CFFEE6DB18E1
:10016000D1844B381BF77C1D901DA4BBE4242032A6
:1001700084725E228100C9F124ECA1E53D2711249F
:100180001FBECFEFD0E1DEBFCDBF11E0A0E0B1E0F8
:10019000E6E6F7E102C005900D92A23BB107D9F760
:1001A00011E0A2EBB1E001C01D92A23DB107E1F761
:1001B0000E94E6060C94B10B0C940000A1E1B0E0A3
:1001C000E4EEF0E00C94C9093C017F876E876A0178
:1001D000FC0117821682838181FD03C06FEF7FEFE0
:1001E0006FC39E012F5F3F4F398B288BF301238113
:1001F000EE85FF8523FD859123FF8191FF87EE87A3
:10020000882309F45AC3853251F4EE85FF8523FD16
:10021000859123FF8191FF87EE87853229F490E055
:10022000B3010E94EE0AE2CF982F10E088249924AF
:100230001032B0F49B3269F09C3228F4903251F0C5
:10024000933271F40BC09D3239F0903349F4116050
:1002500028C01260146025C0186023C0106121C03E
:1002600017FD2AC0892F80538A3078F416FF06C004
:10027000FAE09F9E902C1124980E13C03AE0839EC2
:10028000802C1124880E10620CC09E3221F416FDC1
:1002900014C3106406C09C3611F4106802C098366E
:1002A00059F4EE85FF8523FD959123FF9191FF87FA
:1002B000EE87992309F0BCCF892F8554833020F431
:1002C000812F8061905E07C0892F8556833008F0AA
:1002D0009FC1812F8F7E86FD02C076E0972E6FE34F
:1002E000F62EF822953619F4F0E4FF2A07C0963668
:1002F00019F420E8F22A02C091109A94F7FE0AC07D
:100300003BE3391518F45CE3B52E02C0B92CB39465
:1003100027E009C047E0491520F4BB2447E0942EAC
:10032000F7CF292DBB24C60104969D878C87F60143
:100330006081718182819381AE014F5F5F4F0B2D90
:100340000E94000A6C010981202E332400FF04C0A2
:1003500003FD02C01DE209C0F1FE02C01BE205C0A0
:10036000F2FC02C010E001C010E2C1018C7090707C
:10037000892BB9F1112311F483E001C084E08815C1
:1003800010F088240AC0881AF3FC07C080E290E0CD
:10039000B3010E94EE0A8A94C9F7112329F0812F34
:1003A00090E0B3010E94EE0A23FE03C00CE710E0C8
:1003B0000EC000E810E00BC0E114F10409F0805217
:1003C00090E0B3010E94EE0A0F5F1F4F05C0EF2CB3
:1003D000FF24F0E1EF22FF24F8018491882361F7E4
:1003E00014C1F7FE12C0BC0C24FE04C08A81813304
:1003F00009F4BA941B141CF0BB24B3942DC0F8E08C
:10040000FB1550F538E0B32E27C0F6FC25C0892D2A
:1004100090E08C159D054CF02CEFC2162FEFD20604
:1004200024F030E8F32A01C09A94992049F0E2E0E0
:10043000F0E0EC0FFD1FE90DF11D80818033A1F389
:10044000F7FE0AC0B92CB394892D90E0C816D906DE
:1004500014F0992401C09C18F7FC03C025E030E09B
:1004600009C01C141D041CF021E030E003C09601FB
:100470002F5F3F4F112311F02F5F3F4F992029F03D
:10048000892D90E00196280F391F882D90E02817BC
:10049000390714F0882401C0821A4F2C5524C20158
:1004A00089709070892B39F008C080E290E0B30128
:1004B0000E94EE0A8A948820C1F7112329F0812F27
:1004C00090E0B3010E94EE0A43FE07C008C080E33B
:1004D00090E0B3010E94EE0A8A948820C1F7F7FEEB
:1004E00046C08601D7FE02C000E010E07601089405
:1004F000E11CF11CE01AF10A41E050E04C0F5D1FD5
:10050000E40EF51E26014B185108892D90E0AA240F
:10051000BB24A81AB90A5FEF0F3F150729F48EE232
:1005200090E0B3010E94EE0AC016D10634F04016E6
:1005300051061CF4F701808101C080E30150104096
:100540000894E11CF11C0A151B052CF090E0B30186
:100550000E94EE0AE0CF0C151D0539F49A819633FE
:1005600018F4953311F424FE81E390E04BC08A81A6
:10057000813309F00F7E90E0B3010E94EE0A9920CA
:10058000A1F08EE290E0B3010E94EE0A12E0E1E0F9
:10059000F0E0EC0FFD1FE10FF11D1F5F808190E087
:1005A000B3010E94EE0A9A9491F744FC03C085E6D9
:1005B00090E002C085E490E0B3010E94EE0AD7FC0F
:1005C00005C0C114D10441F404FF06C0D094C19405
:1005D000D108D3948DE201C08BE290E0B3010E9478
:1005E000EE0A80E305C08F5F26EF3FEFC20ED31EF9
:1005F0003AE0C316D104BCF790E0B3010E94EE0AC2
:10060000C601C096B3010E94EE0ACC84DD8452C1BB
:10061000933631F0933799F0933509F059C023C0E0
:10062000F601808189835E010894A11CB11C22E03F
:1006300030E0C20ED31E21E0E22EF12C12C0F601F2
:10064000A080B18016FD03C06FEF7FEF02C0692D5F
:1006500070E022E030E0C20ED31EC5010E94E30A22
:100660007C011F7713C0F601A080B18016FD03C086
:100670006FEF7FEF02C0692D70E022E030E0C20E24
:10068000D31EC5010E94D80A7C01106813FF07C061
:100690001BC080E290E0B3010E94EE0A8A94882D8C
:1006A00090E0E816F906A8F30FC0F50117FD859153
:1006B00017FF81915F0190E0B3010E94EE0A811063
:1006C0008A940894E108F108E114F10471F7F2C08A
:1006D000943611F0993689F517FF08C0F60120818C
:1006E00031814281538184E090E00AC0F60180812B
:1006F00091819C01442737FD4095542F82E090E082
:10070000C80ED91E9FE6F92EF12257FF09C0509559
:100710004095309521953F4F4F4F5F4F90E8F92A14
:10072000CA01B901AE014F5F5F4F2AE030E00E947D
:10073000530BE82EE889EE1A41C0953721F41F7E4D
:100740002AE030E01CC0197F9F3661F0903720F41A
:10075000983509F0B2C00FC0903739F0983709F0DA
:10076000ACC004C028E030E00AC0106114FD146081
:1007700020E130E004C014FD166020E132E017FFF4
:1007800008C0F601608171818281938144E050E06C
:1007900008C0F60180819181BC0180E090E042E0D8
:1007A00050E0C40ED51EAE014F5F5F4F0E94530B49
:1007B000E82E5889E51A8FE7F82EF122F6FE0BC0D5
:1007C0008EEFF822E91438F4F4FE07C0F2FC05C0FD
:1007D0009FEEF92202C01E2D01C0192DF4FE0DC09E
:1007E000FE01EE0DF11D8081803319F4E9EEFE2249
:1007F00008C01F5FF2FE05C003C08F2D867809F088
:100800001F5F0F2DF3FC14C0F0FE0FC0181510F081
:100810009E2C0BC09E2C980C911A182D06C080E2BD
:1008200090E0B3010E94EE0A1F5F1815C0F304C0E8
:10083000181510F4811A01C0882404FF0FC080E34A
:1008400090E0B3010E94EE0A02FF1DC001FD03C04B
:1008500088E790E00EC088E590E00BC0802F867896
:1008600091F001FF02C08BE201C080E2F7FC8DE253
:1008700090E0B3010E94EE0A06C080E390E0B3016D
:100880000E94EE0A9A94E914C0F3EA94E1E0F0E0E1
:10089000EC0FFD1FEE0DF11D808190E0B3010E9471
:1008A000EE0AEE2091F706C080E290E0B3010E94CC
:1008B000EE0A8A948820C1F799CCF301668177818A
:1008C000CB016196E2E10C94E50991B121E030E0C1
:1008D000082E02C0220F331F0A94E2F72095292325
:1008E00021B9ACE7B0E090E49C93EAE7F0E097E050
:1008F0009083806E8C9380818068808308951092AD
:100900007A0091B121E030E002C0220F331F8A95B6
:10091000E2F7922B91B9EEE7F0E080812095282351
:1009200020831092780010927900089590917C00B5
:10093000907E90937C0090917C00982B90937C000B
:1009400080E480937A0080917A00FDCF08959B0126
:10095000AC01EAE7F1E080819181A281B38128179F
:1009600039074A075B0729F0349681E0EE3AF80729
:1009700091F764E0220F331F441F551F6A95D1F78A
:1009800060E070E489E191E00E94A709C901DA0101
:100990000197A109B109292F3A2F4B2F552701960D
:1009A000A11DB11D2093CD0081508093CC0088E122
:1009B0008093C90086E08093CA000895982F8091A3
:1009C000C80085FFFCCF9093CE0008958091C800A9
:1009D00087FFFCCF8091CE0008951F920F920FB633
:1009E0000F9211248F939F93AF93BF938091C60171
:1009F0009091C701A091C801B091C9010196A11DB4
:100A0000B11D8093C6019093C701A093C801B09314
:100A1000C90180917C0085FF10C08091780083E03F
:100A200090E09093CB018093CA018091790090E08F
:100A3000880F991F880F991F04C0809178009091AA
:100A400079009093CB018093CA0181E090E090936C
:100A5000B9018093B801BF91AF919F918F910F9091
:100A60000FBE0F901F901895F8940E94650488EFB0
:100A700080937B00EAE7F0E08081886A8083808150
:100A800080648083789408951092CB011092CA01FB
:100A90001092B9011092B8011092B2011092B301F4
:100AA0001092B4011092B5011092BA011092BB01DC
:100AB0001092BC011092BD0180E090E0A0E0B0E097
:100AC0008093C0019093C101A093C201B093C30170
:100AD0001092C6011092C7011092C8011092C9016C
:100AE00086E090E09093BF018093BE011092B70121
:100AF0001092B6011092C5011092C4010895809120
:100B00007C0090E00895A0E0B0E0BC01CD010E941F
:100B1000B60820E030EC4FE754E40E944E0820E095
:100B200030E047E853E40E9444090895A0E0B0E0B3
:100B3000BC01CD010E94B60820E030EC4FE754E440
:100B40000E944E0820E030E44CE955E40E9444093C
:100B5000089586B1379B03C086E090E00CC0369BB9
:100B600003C085E090E007C0349B03C084E090E0C0
:100B700002C08AE090E09093BF018093BE01089587
:100B800087B117B8089584B184B985B115B883B118
:100B900013B808956091B6017091B70161157105A0
:100BA00029F16130710509F044C09C0140E050E03A
:100BB0008091BA019091BB01A091BC01B091BD019F
:100BC00082179307A407B507A0F11092B7011092FE
:100BD000B6011092BA011092BB011092BC011092A2
:100BE000BD0180E70E94DE0415B808959C0140E035
:100BF00050E08091BA019091BB01A091BC01B091ED
:100C0000BD0182179307A407B50798F081E090E033
:100C10009093B7018093B6011092BA011092BB0174
:100C20001092BC011092BD0183E70E94DE0482E0B5
:100C300085B908958091BE019091BF0186309105DC
:100C400049F08730910519F00597A9F40CC087E2A7
:100C500090E002C083EC90E09093C5018093C401C2
:100C60000E94CA05089582E49FE09093C501809395
:100C7000C4010E94CA0508952091CA013091CB0198
:100C80008DB79EB70C970FB6F8949EBF0FBE8DBF61
:100C9000EDB7FEB7319680E091E0ADB7BEB71296E2
:100CA0009C938E93119780E090E0A0E0B0E0828367
:100CB0009383A483B5838091BE019091BF019783F4
:100CC00086838091C4019091C50191878087338785
:100CD00022870E941A0B8DB79EB70C960FB6F89418
:100CE0009EBF0FBE8DBF08958F929F92AF92BF920D
:100CF000CF92DF92EF92FF920F931F938091CA01E0
:100D00009091CB010E9483054B015C018091CA0147
:100D10009091CB010E9496056B017C016091B2011C
:100D20007091B3018091B4019091B5010E94B60811
:100D300020E030E040E05FE30E9444099B01AC0109
:100D40002093C0013093C1014093C2015093C3016D
:100D50000091CA011091CB012DB73EB72051304010
:100D60000FB6F8943EBF0FBE2DBFEDB7FEB731965C
:100D700021E131E0ADB7BEB712963C932E931197A7
:100D8000CB01DA0182839383A483B583178306831F
:100D900080869186A286B386C486D586E686F78647
:100DA0000E941A0B2DB73EB7205F3F4F0FB6F89445
:100DB0003EBF0FBE2DBF1F910F91FF90EF90DF90B0
:100DC000CF90BF90AF909F908F9008950E94C907D9
:100DD0000E94440560E072EC81E090E00E94A7046C
:100DE00084E090E00E94340587B117B884B184B9DB
:100DF00085B115B883B113B800D000D082E291E07C
:100E0000EDB7FEB79283818385E291E0948383837B
:100E10000E941A0B0F900F900F900F900E94E60403
:100E2000882359F080E090E061E070E041E050E01C
:100E30000E94AE070E941A06FDCF80E090E0089560
:100E4000DF93CF93CDB7DEB7CF91DF9108951F9297
:100E50000F920FB60F921124EF92FF920F931F93F0
:100E60002F933F934F935F936F937F938F939F93B2
:100E7000AF93BF93EF93FF93E090B201F090B30173
:100E80000091B4011091B5010894E11CF11C011D01
:100E9000111DE092B201F092B3010093B4011093DE
:100EA000B501C801B7012BE030E040E050E00E94FE
:100EB000A709611571058105910569F00894E11C88
:100EC000F11C011D111DE092B201F092B3010093DB
:100ED000B4011093B501FF91EF91BF91AF919F9134
:100EE0008F917F916F915F914F913F912F911F91C2
:100EF0000F91FF90EF900F900FBE0F901F901895DD
:100F00001F920F920FB60F9211248F939F93AF935E
:100F1000BF938091BA019091BB01A091BC01B091A7
:100F2000BD010196A11DB11D8093BA019093BB0133
:100F3000A093BC01B093BD01BF91AF919F918F91E0
:100F40000F900FBE0F901F9018956091B201709195
:100F5000B3018091B4019091B5010895009769F0B3
:100F60000197A9F41092800083E48093810080911E
:100F70006F00816080936F00089582E884BD85ECE6
:100F800085BD80916E00826080936E0047BD08959C
:100F900008958CE691E09093CF018093CE0160E0BC
:100FA00072EC81E090E00E94DB0708950E94DE046D
:100FB00080E090E008959B01AC0184E0220F331F94
:100FC000441F551F8A95D1F760E070E489E191E0F4
:100FD0000E94A709215030403093C5002093C400DF
:100FE00088E18093C10086E08093C2000895982F25
:100FF0008091C00085FFFCCF9093C6000895FC014E
:1010000007C08091C00085FFFCCF9093C600319649
:1010100090819923B1F708950F931F93DF93CF9396
:10102000CDB7DEB764970FB6F894DEBF0FBECDBF65
:101030002DB73EB7285030400FB6F8943EBF0FBED4
:101040002DBFEDB7FEB731968E010F5F1F4FADB7C5
:10105000BEB712961C930E93119722E531E03383AD
:10106000228395838483778366830E942F0B2DB719
:101070003EB7285F3F4F0FB6F8943EBF0FBE2DBF5F
:10108000C8010E94FF0764960FB6F894DEBF0FBE3A
:10109000CDBFCF91DF911F910F9108950CD0BAC0B1
:1010A000B2D040F0A9D030F021F45F3F19F09BC0DE
:1010B0005111E4C09EC0BFD098F39923C9F35523C2
:1010C000B1F3951B550BBB27AA276217730784073B
:1010D00038F09F5F5F4F220F331F441FAA1FA9F3F1
:1010E00033D00E2E3AF0E0E830D091505040E695E3
:1010F000001CCAF729D0FE2F27D0660F771F881F44
:10110000BB1F261737074807AB07B0E809F0BB0B32
:10111000802DBF01FF2793585F4F2AF09E3F510556
:1011200068F061C0ABC05F3FECF3983EDCF386959E
:1011300077956795B795F7959F5FC9F7880F911DCC
:101140009695879597F90895E1E0660F771F881FB8
:10115000BB1F621773078407BA0720F0621B730B6B
:10116000840BBA0BEE1F88F7E0950895E89409C048
:1011700097FB3EF490958095709561957F4F8F4FCA
:101180009F4F9923A9F0F92F96E9BB279395F695E0
:10119000879577956795B795F111F8CFFAF4BB0F5E
:1011A00011F460FF1BC06F5F7F4F8F4F9F4F16C0C2
:1011B000882311F096E911C0772321F09EE8872F4C
:1011C000762F05C0662371F096E8862F70E060E008
:1011D0002AF09A95660F771F881FDAF7880F969581
:1011E000879597F9089597F99F6780E870E060E028
:1011F00008959FEF80EC089500240A9416161706B0
:1012000018060906089500240A94121613061406F7
:1012100005060895092E0394000C11F4882352F05A
:10122000BB0F40F4BF2B11F460FF04C06F5F7F4F12
:101230008F4F9F4F089557FD9058440F551F59F0F9
:101240005F3F71F04795880F97FB991F61F09F3FB3
:1012500079F087950895121613061406551FF2CFDC
:101260004695F1DF08C0161617061806991FF1CF2C
:1012700086957105610508940895E894BB27662753
:101280007727CB0197F908950BD0C4CFB5DF28F0AD
:10129000BADF18F0952309F0A6CFABCF1124EECF1B
:1012A000CADFA0F3959FD1F3950F50E0551F629FC1
:1012B000F001729FBB27F00DB11D639FAA27F00DAF
:1012C000B11DAA1F649F6627B00DA11D661F829FD6
:1012D0002227B00DA11D621F739FB00DA11D621FBB
:1012E000839FA00D611D221F749F3327A00D611DD8
:1012F000231F849F600D211D822F762F6A2F1124BA
:101300009F5750408AF0E1F088234AF0EE0FFF1F0C
:10131000BB1F661F771F881F91505040A9F79E3F43
:10132000510570F060CFAACF5F3FECF3983EDCF33D
:10133000869577956795B795F795E7959F5FC1F780
:10134000FE2B880F911D9695879597F90895A1E238
:101350001A2EAA1BBB1BFD010DC0AA1FBB1FEE1F2F
:10136000FF1FA217B307E407F50720F0A21BB30B7A
:10137000E40BF50B661F771F881F991F1A9469F7F6
:1013800060957095809590959B01AC01BD01CF0152
:1013900008952F923F924F925F926F927F928F9219
:1013A0009F92AF92BF92CF92DF92EF92FF920F93F4
:1013B0001F93CF93DF93CDB7DEB7CA1BDB0B0FB6FE
:1013C000F894DEBF0FBECDBF09942A8839884888BB
:1013D0005F846E847D848C849B84AA84B984C88451
:1013E000DF80EE80FD800C811B81AA81B981CE0F48
:1013F000D11D0FB6F894DEBF0FBECDBFED0108952D
:10140000283008F027E03327DA01990F311D87FDD6
:10141000916000966105710539F432602E5F3D934D
:1014200030E32A95E1F708959F3F30F08038710549
:10143000610509F03C5F3C5F3D93913008F08068A6
:10144000911DDF93CF931F930F93FF92EF92192F6C
:10145000987F9695E92F96959695E90FFF27E2528A
:10146000FF4F99273327EE24FF24A701E7010590BA
:101470000894079428F4360FE71EF81E491F511DE3
:10148000660F771F881F991F0694A1F70590079490
:1014900028F4E70EF81E491F561FC11D770F881F3D
:1014A000991F661F0694A1F70590079428F4F80E7B
:1014B000491F561FC71FD11D880F991F661F771F11
:1014C0000694A1F70590079420F4490F561FC71FF3
:1014D000D81F990F661F771F881F0694A9F784915C
:1014E0001095177041F0D695C79557954795F79485
:1014F000E7941A95C1F7E4E8F0E068941590159127
:1015000035916591959105907FE27395E118F10A07
:10151000430B560BC90BD009C0F7E10CF11E431F5A
:10152000561FC91FD01D7EF4703311F48A95E6CF83
:10153000E894015030F0080F0AF40027021708F46D
:10154000202F2395022F7A3328F079E37D932A9573
:10155000E9F710C07D932A9589F6069497956795CB
:10156000379517951794E118F10A430B560BC90BE1
:10157000D00998F023957E9173957A3308F070E343
:101580007C932013B8F77E9170617D9330F0839542
:1015900071E37D9370E32A95E1F71124EF90FF90BA
:1015A0000F911F91CF91DF91992787FD9095089515
:1015B000FC010590615070400110D8F7809590951E
:1015C0008E0F9F1F0895FC01615070400190011023
:1015D000D8F7809590958E0F9F1F08950F931F93B6
:1015E000CF93DF938C01EB018B8181FF1BC082FFC6
:1015F0000DC02E813F818C819D812817390764F4AD
:10160000E881F9810193F983E88306C0E885F985CB
:10161000802F0995892B31F48E819F8101969F83BC
:101620008E8302C00FEF1FEFC801DF91CF911F9192
:101630000F910895A0E0B0E0E0E2FBE00C94D9093E
:10164000FE013596619171918091CE019091CF010B
:10165000AF010E94DE002096E2E00C94F509AEE0B6
:10166000B0E0E5E3FBE00C94D7090D891E8986E024
:101670008C831A8309838FEF9FE79E838D839E015E
:10168000275E3F4FCE0101966F89788DA9010E9498
:10169000DE002F813885020F131FF80110822E966D
:1016A000E4E00C94F309FA01AA27283051F1203123
:1016B00081F1E8946F936E7F6E5F7F4F8F4F9F4FE6
:1016C000AF4FB1E03ED0B4E03CD0670F781F891F28
:1016D0009A1FA11D680F791F8A1F911DA11D6A0FF6
:1016E000711D811D911DA11D20D009F468943F91A9
:1016F0002AE0269F11243019305D3193DEF6CF01A8
:101700000895462F4770405D4193B3E00FD0C9F76D
:10171000F6CF462F4F70405D4A3318F0495D31FDDA
:101720004052419302D0A9F7EACFB4E0A69597952D
:10173000879577956795BA95C9F700976105710503
:1017400008959B01AC010A2E06945795479537954D
:101750002795BA95C9F7620F731F841F951FA01DA7
:061760000895F894FFCF8C
:1017660025662C2025642C2025642C2025640A0D52
:101776000025662C2025642C2025662C2025660A4B
:101786000D002573002020507265737320616E79F9
:10179600206C657474657220746F20737461727442
:1017A600207265636F7264696E672064617461207C
:1017B6002000536574736572766F2825642C253076
:1017C6003364290A0D0008004000480000000002AA
:1017D60000000000D607000000006E000000960022
:1017E60000002C010000B004000060090000C012D7
:1017F600000080250000004B00000096000000E17C
:10180600000000C201000084030000080700001069
:021816000E00C2
:00000001FF
